{
  "_format": "hh-sol-artifact-1",
  "contractName": "CollegeVoting",
  "sourceName": "contracts/CollegeVoting.sol",
  "abi": [
    {
      "anonymous": false,
      "inputs": [
        {
          "indexed": true,
          "internalType": "address",
          "name": "previousOwner",
          "type": "address"
        },
        {
          "indexed": true,
          "internalType": "address",
          "name": "newOwner",
          "type": "address"
        }
      ],
      "name": "OwnershipTransferred",
      "type": "event"
    },
    {
      "anonymous": false,
      "inputs": [],
      "name": "Reset",
      "type": "event"
    },
    {
      "anonymous": false,
      "inputs": [
        {
          "indexed": true,
          "internalType": "bytes32",
          "name": "rollHash",
          "type": "bytes32"
        },
        {
          "indexed": false,
          "internalType": "string",
          "name": "encryptedChoice",
          "type": "string"
        }
      ],
      "name": "Voted",
      "type": "event"
    },
    {
      "inputs": [],
      "name": "getAllEncryptedVotes",
      "outputs": [
        {
          "internalType": "bytes32[]",
          "name": "",
          "type": "bytes32[]"
        },
        {
          "internalType": "string[]",
          "name": "",
          "type": "string[]"
        }
      ],
      "stateMutability": "view",
      "type": "function"
    },
    {
      "inputs": [
        {
          "internalType": "bytes32",
          "name": "",
          "type": "bytes32"
        }
      ],
      "name": "hasVoted",
      "outputs": [
        {
          "internalType": "bool",
          "name": "",
          "type": "bool"
        }
      ],
      "stateMutability": "view",
      "type": "function"
    },
    {
      "inputs": [
        {
          "internalType": "bytes32",
          "name": "rollHash",
          "type": "bytes32"
        }
      ],
      "name": "hasVotedFor",
      "outputs": [
        {
          "internalType": "bool",
          "name": "",
          "type": "bool"
        }
      ],
      "stateMutability": "view",
      "type": "function"
    },
    {
      "inputs": [],
      "name": "owner",
      "outputs": [
        {
          "internalType": "address",
          "name": "",
          "type": "address"
        }
      ],
      "stateMutability": "view",
      "type": "function"
    },
    {
      "inputs": [],
      "name": "resetElection",
      "outputs": [],
      "stateMutability": "nonpayable",
      "type": "function"
    },
    {
      "inputs": [
        {
          "internalType": "bytes32",
          "name": "rollHash",
          "type": "bytes32"
        },
        {
          "internalType": "string",
          "name": "encryptedChoice",
          "type": "string"
        }
      ],
      "name": "submitVote",
      "outputs": [],
      "stateMutability": "nonpayable",
      "type": "function"
    },
    {
      "inputs": [],
      "name": "totalVotes",
      "outputs": [
        {
          "internalType": "uint256",
          "name": "",
          "type": "uint256"
        }
      ],
      "stateMutability": "view",
      "type": "function"
    },
    {
      "inputs": [
        {
          "internalType": "address",
          "name": "newOwner",
          "type": "address"
        }
      ],
      "name": "transferOwnership",
      "outputs": [],
      "stateMutability": "nonpayable",
      "type": "function"
    }
  ],
  "bytecode": "0x608060405234801561001057600080fd5b50336000806101000a81548173ffffffffffffffffffffffffffffffffffffffff021916908373ffffffffffffffffffffffffffffffffffffffff1602179055503373ffffffffffffffffffffffffffffffffffffffff16600073ffffffffffffffffffffffffffffffffffffffff167f8be0079c531659141344cd1fd0a4f28419497f9722a3daafe3b4186f6b6457e060405160405180910390a361129b806100bb6000396000f3fe608060405234801561001057600080fd5b50600436106100885760003560e01c80638da5cb5b1161005b5780638da5cb5b14610116578063e8f3052314610134578063f2fde38b1461013e578063fbef5f1b1461015a57610088565b80630d15fd771461008d578063199541e9146100ab5780631b4613cb146100ca5780634812c096146100fa575b600080fd5b61009561018a565b6040516100a291906108ec565b60405180910390f35b6100b3610197565b6040516100c1929190610b21565b60405180910390f35b6100e460048036038101906100df9190610b8e565b610359565b6040516100f19190610bd6565b60405180910390f35b610114600480360381019061010f9190610c56565b610379565b005b61011e6104ab565b60405161012b9190610cf7565b60405180910390f35b61013c6104cf565b005b61015860048036038101906101539190610d3e565b61060f565b005b610174600480360381019061016f9190610b8e565b6107c9565b6040516101819190610bd6565b60405180910390f35b6000600280549050905090565b60608060008054906101000a900473ffffffffffffffffffffffffffffffffffffffff1673ffffffffffffffffffffffffffffffffffffffff163373ffffffffffffffffffffffffffffffffffffffff1614610228576040517f08c379a000000000000000000000000000000000000000000000000000000000815260040161021f90610dc8565b60405180910390fd5b600360028180548060200260200160405190810160405280929190818152602001828054801561027757602002820191906000526020600020905b815481526020019060010190808311610263575b5050505050915080805480602002602001604051908101604052809291908181526020016000905b8282101561034b5783829060005260206000200180546102be90610e17565b80601f01602080910402602001604051908101604052809291908181526020018280546102ea90610e17565b80156103375780601f1061030c57610100808354040283529160200191610337565b820191906000526020600020905b81548152906001019060200180831161031a57829003601f168201915b50505050508152602001906001019061029f565b505050509050915091509091565b60016020528060005260406000206000915054906101000a900460ff1681565b6001600084815260200190815260200160002060009054906101000a900460ff16156103da576040517f08c379a00000000000000000000000000000000000000000000000000000000081526004016103d190610e94565b60405180910390fd5b600180600085815260200190815260200160002060006101000a81548160ff0219169083151502179055506003839080600181540180825580915050600190039060005260206000200160009091909190915055600282829091806001815401808255809150506001900390600052602060002001600090919290919290919290919250918261046b92919061109a565b50827f4f8658e1264c558d9c2f26d2c7bb7618797813aad8f8f254d9e63ce07634d439838360405161049e9291906111a6565b60405180910390a2505050565b60008054906101000a900473ffffffffffffffffffffffffffffffffffffffff1681565b60008054906101000a900473ffffffffffffffffffffffffffffffffffffffff1673ffffffffffffffffffffffffffffffffffffffff163373ffffffffffffffffffffffffffffffffffffffff161461055d576040517f08c379a000000000000000000000000000000000000000000000000000000000815260040161055490610dc8565b60405180910390fd5b60005b6003805490508110156105c45760006001600060038481548110610587576105866111ca565b5b9060005260206000200154815260200190815260200160002060006101000a81548160ff0219169083151502179055508080600101915050610560565b50600360006105d391906107f3565b600260006105e19190610814565b7f6423db340205c829eeb91151b1c5d1dc6d7a2b8708b1621494e89ba90c87081e60405160405180910390a1565b60008054906101000a900473ffffffffffffffffffffffffffffffffffffffff1673ffffffffffffffffffffffffffffffffffffffff163373ffffffffffffffffffffffffffffffffffffffff161461069d576040517f08c379a000000000000000000000000000000000000000000000000000000000815260040161069490610dc8565b60405180910390fd5b600073ffffffffffffffffffffffffffffffffffffffff168173ffffffffffffffffffffffffffffffffffffffff160361070c576040517f08c379a000000000000000000000000000000000000000000000000000000000815260040161070390611245565b60405180910390fd5b8073ffffffffffffffffffffffffffffffffffffffff1660008054906101000a900473ffffffffffffffffffffffffffffffffffffffff1673ffffffffffffffffffffffffffffffffffffffff167f8be0079c531659141344cd1fd0a4f28419497f9722a3daafe3b4186f6b6457e060405160405180910390a3806000806101000a81548173ffffffffffffffffffffffffffffffffffffffff021916908373ffffffffffffffffffffffffffffffffffffffff16021790555050565b60006001600083815260200190815260200160002060009054906101000a900460ff169050919050565b50805460008255906000526020600020908101906108119190610835565b50565b50805460008255906000526020600020908101906108329190610852565b50565b5b8082111561084e576000816000905550600101610836565b5090565b5b8082111561087257600081816108699190610876565b50600101610853565b5090565b50805461088290610e17565b6000825580601f1061089457506108b3565b601f0160209004906000526020600020908101906108b291906108b6565b5b50565b5b808211156108cf5760008160009055506001016108b7565b5090565b6000819050919050565b6108e6816108d3565b82525050565b600060208201905061090160008301846108dd565b92915050565b600081519050919050565b600082825260208201905092915050565b6000819050602082019050919050565b6000819050919050565b61094681610933565b82525050565b6000610958838361093d565b60208301905092915050565b6000602082019050919050565b600061097c82610907565b6109868185610912565b935061099183610923565b8060005b838110156109c25781516109a9888261094c565b97506109b483610964565b925050600181019050610995565b5085935050505092915050565b600081519050919050565b600082825260208201905092915050565b6000819050602082019050919050565b600081519050919050565b600082825260208201905092915050565b60005b83811015610a35578082015181840152602081019050610a1a565b60008484015250505050565b6000601f19601f8301169050919050565b6000610a5d826109fb565b610a678185610a06565b9350610a77818560208601610a17565b610a8081610a41565b840191505092915050565b6000610a978383610a52565b905092915050565b6000602082019050919050565b6000610ab7826109cf565b610ac181856109da565b935083602082028501610ad3856109eb565b8060005b85811015610b0f5784840389528151610af08582610a8b565b9450610afb83610a9f565b925060208a01995050600181019050610ad7565b50829750879550505050505092915050565b60006040820190508181036000830152610b3b8185610971565b90508181036020830152610b4f8184610aac565b90509392505050565b600080fd5b600080fd5b610b6b81610933565b8114610b7657600080fd5b50565b600081359050610b8881610b62565b92915050565b600060208284031215610ba457610ba3610b58565b5b6000610bb284828501610b79565b91505092915050565b60008115159050919050565b610bd081610bbb565b82525050565b6000602082019050610beb6000830184610bc7565b92915050565b600080fd5b600080fd5b600080fd5b60008083601f840112610c1657610c15610bf1565b5b8235905067ffffffffffffffff811115610c3357610c32610bf6565b5b602083019150836001820283011115610c4f57610c4e610bfb565b5b9250929050565b600080600060408486031215610c6f57610c6e610b58565b5b6000610c7d86828701610b79565b935050602084013567ffffffffffffffff811115610c9e57610c9d610b5d565b5b610caa86828701610c00565b92509250509250925092565b600073ffffffffffffffffffffffffffffffffffffffff82169050919050565b6000610ce182610cb6565b9050919050565b610cf181610cd6565b82525050565b6000602082019050610d0c6000830184610ce8565b92915050565b610d1b81610cd6565b8114610d2657600080fd5b50565b600081359050610d3881610d12565b92915050565b600060208284031215610d5457610d53610b58565b5b6000610d6284828501610d29565b91505092915050565b600082825260208201905092915050565b7f4f776e61626c653a2063616c6c6572206973206e6f7420746865206f776e6572600082015250565b6000610db2602083610d6b565b9150610dbd82610d7c565b602082019050919050565b60006020820190508181036000830152610de181610da5565b9050919050565b7f4e487b7100000000000000000000000000000000000000000000000000000000600052602260045260246000fd5b60006002820490506001821680610e2f57607f821691505b602082108103610e4257610e41610de8565b5b50919050565b7f416c726561647920766f74656400000000000000000000000000000000000000600082015250565b6000610e7e600d83610d6b565b9150610e8982610e48565b602082019050919050565b60006020820190508181036000830152610ead81610e71565b9050919050565b600082905092915050565b7f4e487b7100000000000000000000000000000000000000000000000000000000600052604160045260246000fd5b60008190508160005260206000209050919050565b60006020601f8301049050919050565b600082821b905092915050565b600060088302610f507fffffffffffffffffffffffffffffffffffffffffffffffffffffffffffffffff82610f13565b610f5a8683610f13565b95508019841693508086168417925050509392505050565b6000819050919050565b6000610f97610f92610f8d846108d3565b610f72565b6108d3565b9050919050565b6000819050919050565b610fb183610f7c565b610fc5610fbd82610f9e565b848454610f20565b825550505050565b600090565b610fda610fcd565b610fe5818484610fa8565b505050565b5b8181101561100957610ffe600082610fd2565b600181019050610feb565b5050565b601f82111561104e5761101f81610eee565b61102884610f03565b81016020851015611037578190505b61104b61104385610f03565b830182610fea565b50505b505050565b600082821c905092915050565b600061107160001984600802611053565b1980831691505092915050565b600061108a8383611060565b9150826002028217905092915050565b6110a48383610eb4565b67ffffffffffffffff8111156110bd576110bc610ebf565b5b6110c78254610e17565b6110d282828561100d565b6000601f83116001811461110157600084156110ef578287013590505b6110f9858261107e565b865550611161565b601f19841661110f86610eee565b60005b8281101561113757848901358255600182019150602085019450602081019050611112565b868310156111545784890135611150601f891682611060565b8355505b6001600288020188555050505b50505050505050565b82818337600083830152505050565b60006111858385610d6b565b935061119283858461116a565b61119b83610a41565b840190509392505050565b600060208201905081810360008301526111c1818486611179565b90509392505050565b7f4e487b7100000000000000000000000000000000000000000000000000000000600052603260045260246000fd5b7f496e76616c6964206f776e657200000000000000000000000000000000000000600082015250565b600061122f600d83610d6b565b915061123a826111f9565b602082019050919050565b6000602082019050818103600083015261125e81611222565b905091905056fea2646970667358221220eb0c252fb150a0d31bc51b8eea26df41842ce3ad9a6c623251d6452807011b4a64736f6c63430008180033",
  "linkReferences": {},
  "deployedLinkReferences": {}
}